:020000040800F2
:1000000018B000205D020008FB50000845440008BD
:10001000F950000839110008496E0008000000007E
:100020000000000000000000000000009D0100082A
:10003000BD13000800000000F901000895650008E4
:1000400077020008770200087702000877020008AC
:10005000770200087702000877020008770200089C
:10006000770200087702000877020008770200088C
:10007000770200087702000877020008770200087C
:100080006D11000877020008770200087702000867
:10009000770200087702000877020008770200085C
:1000A000770200087702000877020008770200084C
:1000B000770200087702000877020008770200083C
:1000C000770200087702000877020008770200082C
:1000D00077020008556D00086D6D00087702000872
:1000E000770200087702000877020008770200080C
:1000F00077020008770200087702000877020008FC
:1001000077020008770200087702000877020008EB
:100110007702000877020008770200085566000899
:10012000770200087911000885110008770200089D
:1001300077020008770200087702000877020008BB
:1001400077020008770200087702000877020008AB
:10015000770200087702000877020008856D000822
:10016000770200087702000877020008770200088B
:1001700077020008770200087702000800000000FC
:100180007702000877020008DFF80CD000F0BCFC12
:1001900000480047DDA0000818B000202C4B19686B
:1001A0000868B0E8F04F80F30988BFF36F8F4FF015
:1001B000000080F3118870470000000008480068C4
:1001C000006880F308884FF0000080F3148862B65E
:1001D00061B6BFF34F8FBFF36F8F00DF00BF00BF6B
:1001E00008ED00E0DFF80C00016841F470010160E7
:1001F000704700BF88ED00E0EFF30980BFF36F8F19
:10020000134B1A681EF0100F08BF20ED108A20E96A
:10021000F04F106009B44FF0500080F31188BFF325
:100220004F8FBFF36F8F0BF09BFD4FF0000080F3FB
:10023000118809BC19680868B0E8F04F1EF0100F6B
:1002400008BFB0EC108A80F30988BFF36F8F704746
:1002500008010020EFF30580704700000648804742
:1002600006480047FEE7FEE7FEE7FEE7FEE7FEE79B
:10027000FEE7FEE7FEE7FEE74566000889010008A5
:100280002DE9F05F0546002092469B4688460646CB
:10029000814640241BE0284641464746224600F05E
:1002A000C6FA53465A46C01A914110D31146184611
:1002B000224600F0ADFA2D1A67EB01084F462246A0
:1002C0000120002100F0A4FA17EB00094E41201E86
:1002D000A4F10104DFDC484631462A464346BDE826
:1002E000F09F2DE9F0410024061B254671F1000620
:1002F00005DA01240027D0EB070067EB0101161E89
:1003000073F1000605DA0027D2EB0702012567EB3F
:100310000303FFF7B5FF86460E4617469C46AC42E0
:1003200004D00025D0EB050E65EB010624B10020BA
:10033000D2EB000760EB030C704631463A46634649
:10034000BDE8F08140EA01039B0703D009E008C93A
:10035000121F08C0042AFAD203E011F8013B00F88A
:10036000013B521EF9D27047D2B201E000F8012BD6
:10037000491EFBD270470022F6E710B513460A4625
:1003800004461946FFF7F0FF204610BD30B505467C
:100390002A460B4612F8010B13F8014B08B1A04294
:1003A000F8D01CB1002802D06D1CF1E7284630BD02
:1003B00010B5044604E00B7800F8013B03B1491C7A
:1003C000521EF8D2204610BD421C10F8011B002915
:1003D000FBD1801A704730B504460020034600E088
:1003E0005B1C934203D2E05CCD5C401BF8D030BD77
:1003F00070B5064606F012FE046805460A22002182
:10040000304600F085FA2C6070BD2DE9FE4F804625
:1004100081EA0300C00F0C46009021F0004123F058
:100420000045B8EB0200A94105D24046214690465E
:100430001C460B46024623F00040104347D0270DD0
:10044000C7F30A00C3F30A510290401A01904028F2
:100450006BDAC3F3130040F4801B0098924620B17E
:100460000023D2EB030A63EB0B0B01985946C0F152
:100470004002504600F0CCF906460D46504659461B
:10048000019A00F0E4F910EB08006141002487EACA
:10049000115284EAE7731A4340D0009A62B3019A7A
:1004A000012A4FEA075215DC001B61EB02014FF0F5
:1004B000004202EA0752CDE90042001C41F58011DA
:1004C00032462B4600F0A2FA03B0BDE8F08F40465A
:1004D0002146F9E7001B61EB0201001C41F5801386
:1004E00000185B412018A2F5001747EB030140EA12
:1004F000D570B6196D4111E06D084FEA360645EA30
:10050000C0754FEA0752001B61EB0201001C41F568
:10051000801149084FEA30000019514132462B46FC
:1005200003B0BDE8F04F00F062BA0098012240002D
:100530000023D0EB020263EBE073009821464FEA00
:10054000E074B8EB000061EB0401E9E783F00043DD
:100550005BE781F0004158E72DE9FE4F81EA030493
:1005600004F0004421F0004100944FF0000B23F010
:10057000004350EA01045ED052EA03045BD0C3F3A7
:100580000A54C1F30A552C44A4F2F3340194A0FB9D
:100590000254C1F3130141F48011C3F3130343F474
:1005A000801301FB024400FB034E840A970A44EACD
:1005B000815447EA8357A4FB076802958D0A05FB1F
:1005C00007854FEA932C04FB0C542705029D4FEA44
:1005D000065847EA1637B5EB08056EEB070C870E91
:1005E000920E47EA811742EA8312A7FB0201B6EB9B
:1005F0000B0164EB00042B0D43EA0C335E1844EB53
:100600001C50DA465146E7FB0201C5F313044FEADA
:100610000B3343EA14534FEA0432019C43EA0603C6
:10062000A4F10C040294009CCDE900B400F0EEF9B2
:1006300003B0BDE8F08F00200146F9E72DE9F04D49
:1006400081EA030404F0004B21F0004514464FF00A
:10065000000A23F0004150EA050220D054EA0102CA
:100660001DD0C5F30A570246C5F31303C1F31300A7
:10067000C1F30A5640F4801543F48013A7EB060833
:10068000101BD64608F2FD3873EB050002D308F1C3
:10069000010801E092185B41B8F1000F03DA002075
:1006A0000146BDE8F08D00204FF4801106468446D7
:1006B0000EE0171B73EB050705D3121B63EB050355
:1006C00006434CEA010C49084FEA300092185B419E
:1006D00050EA0107EDD152EA030012D082EA040089
:1006E00083EA0501084305D0101BAB4106D2012265
:1006F000002306E000224FF0004302E06FF0010209
:1007000053101AEB06004CEB085110EB0A0041EBBA
:100710000B01BDE8F04D00F06AB90EB5C10F80EADB
:10072000E0700844CA07002140F233438DE80E0010
:100730000A460B4600F06AF903B000BD0EB540F260
:10074000334102910021CDE900110A460B4600F029
:100750005DF903B000BD00F0004230F000400AD067
:10076000C10D01F56071C0F3160042EA0151C208E3
:1007700040071143704700200146704730B5041E02
:1007800071F1000404DB4FF00044404264EB0101CE
:10079000141E73F1000405DB1C464FF00043524267
:1007A00063EB0403994208BF904230BD01F000435F
:1007B00030B421F0004150EA010206D00A0DA2F542
:1007C0006072C1F31301002A02DC30BC00207047C4
:1007D000440F44EAC104C100E01830BC00EBC25031
:1007E00000F0CEB830B50B4601460020202201248F
:1007F00009E021FA02F59D4205D303FA02F5491BEF
:1008000004FA02F52844151EA2F10102F1DC30BD04
:10081000202A04DB203A00FA02F1002070479140C0
:10082000C2F1200320FA03F3194390407047202AB5
:1008300004DB203A21FA02F00021704721FA02F38A
:10084000D040C2F120029140084319467047202A47
:1008500006DBCB17203A41FA02F043EAE07306E0E8
:1008600041FA02F3D040C2F12002914008431946F8
:10087000704700000FB4002300B589B00CA90091A7
:100880000B996FF00042CB601E4B06931E4B0793F3
:100890000423CDE901321D4A089202466B4600202E
:1008A00000F0D2F909B05DF814FB70B586B00646C9
:1008B0004FF0FF300091CDE90101002015460C46B4
:1008C00004903246694604A8FFF7D4FF0346049813
:1008D000211825B108B10A4600E022462A60002806
:1008E0000DD0002B02DD0098884208D0081B009430
:1008F000CDE901043246694604A8FFF7BBFF06B004
:1009000070BD0000810E00089F0E0008350B000826
:100910002DE9F04791460F4680460446002614F81C
:10092000015B2DB100F002F90068405DC007F6D10F
:100930002B2D02D02D2D18D0641E4A463946204654
:1009400000F0BEFA27B13968A14201D1C7F8008092
:1009500071054FF002040BD54042002803DD06F07C
:100960005DFB0460A007BDE8F08746F48066E4E71D
:100970000028F8DA06F052FB04606FF00040F2E75E
:100980000029A8BF7047401C490008BF20F00100A3
:10099000704710B4B0FA80FC00FA0CF050EA010481
:1009A00004BF10BC704749B1CCF1200421FA04F413
:1009B00011FA0CF118BF012121430843A3EB0C01EC
:1009C000CB1D4FEA00614FEA102042BF002010BC4F
:1009D000704700EBC35010440029A4BF10BC7047FF
:1009E000401C490008BF20F0010010BC704710B542
:1009F000141E73F1000408DA401C41F10001921842
:100A00005B411A4301D120F0010010BD2DE9F04DEA
:100A100092469B4611B1B1FA81F202E0B0FA80F23F
:100A200020329046FFF7F4FE04460F4640EA0A00E3
:100A300041EA0B0153465A46084313D0114653EA84
:100A4000010019D0C8F140025046FFF7F0FE0546FC
:100A50000E46504659464246FFF7DAFE084305D097
:100A6000012004E020463946BDE8F08D0020054312
:100A700046EAE0762C4337430A986305E40AA0EB84
:100A800008000022FD0A44EA47540A3002D500203B
:100A90000146E9E7010510196941DDE9084500193A
:100AA0006941BDE8F04DA2E770B521F00043034372
:100AB0000CD0C1F30A550024D5EB040564EB040304
:100AC000D617AD1AB34102DB0020014670BD2018D5
:100AD00041EB025170BDC1F30A52C1F3130140F260
:100AE000FF3341F480119A4202DA00200146704738
:100AF00040F233439A42A2F2334202DC5242FFF701
:100B000096BEFFF785BE0000064C074D06E0E06884
:100B100040F0010394E8070098471034AC42F6D344
:100B2000FFF736FB3C0C01085C0C010800487047DD
:100B3000B40B010810B50446FFF7F8FF0068005D2C
:100B400000F0010010BD00002DE9FF4F087881B0D2
:100B50009946FF2805D0491C2D2804D000240023E5
:100B600008E000230BE00124F9E703EB830300EB2B
:100B70004303491C0878FF28F7D104B15B420020E9
:100B80000090147801462D2C01D02B2C04D1521C3E
:100B90002D2C12D00024009400251678FF2E0ED0A4
:100BA0000A24A0FB04C801FB0481002700FB0711F5
:100BB000521C16EB0C006941EFE70124EBE7994466
:100BC00050EA01020ED00024AA4D2646DFF8A88282
:100BD00000F024FA82468B46B9F1000009DAC9F127
:100BE00000071BE001980021C0E9001105B0BDE835
:100BF000F08F074612E0F80707D022462B46304612
:100C00004146FFF7A9FC0646884622462B46104679
:100C10001946FFF7A1FC04460D467F10002FEAD1CC
:100C2000B9F1000F324643465046594602DAFFF703
:100C300005FD01E0FFF790FC009A0AB181F0004148
:100C4000019AC2E90001D1E72DE9FF4F1F468DB09F
:100C5000D7E901464FF0FF382E2045464FF00009F6
:100C60000B90B9696D1C0E988847396A824688478F
:100C70000028F6D1BAF1FF3F0AD024F4D064002E48
:100C800011DDBAF12B0F08D0BAF12D0F0BD102E014
:100C9000404611B0ABE744F48064B9696D1C0E980E
:100CA00088478246761E6946600501D52D2000E002
:100CB0002B208DF8000001F1010B0DF1200809E057
:100CC000B9696D1C0E98884782460F9844F40074E9
:100CD000761E0560002E02DDBAF1300FF0D00B99C0
:100CE0008A453ED144F0800406E00F99681CA9F1C2
:100CF000010944F400740860B9696D1C761E0E98F1
:100D0000884782463028F0D02BE00B998A4505D1E0
:100D1000200603D444F08004761E18E0504607F005
:100D200081FD08B30DF11301761E44F400748B4568
:100D300008D2AAF130000BF8010B200607D5A9F163
:100D4000010003E0200602D409F101008146A0055C
:100D500002D50F99681C0860B9696D1C0E98884708
:100D60008246002ED1DC53E0002E51DDBAF1650F32
:100D700002D0BAF1450F4BD1A00549D5B9696D1C18
:100D800024F44074761E0E9888478246002E0CDDAF
:100D90002B2804D0BAF12D0F07D144F48074B9691F
:100DA0006D1C0E9888478246761EE00501D52D21E0
:100DB00000E02B2108F8011BCDF82C8021E00DF17B
:100DC0002901761E44F4007488450CD2AAF1300043
:100DD00010F0FF0088F8000002D10B99884509D96E
:100DE00008F1010806E0E00501D5244801E042F2DF
:100DF0000F708146B9696D1C0E98884782460F981E
:100E00000560002E04DD504607F00CFD0028D6D109
:100E1000F9690E988847FF208BF8000088F80000D9
:100E20000020069007904B466A4608A906A8FFF7DF
:100E30008BFEA00502D46FF001002AE714F0240F06
:100E40000AD0E00714D1DDE906123868031D3B60C3
:100E50000068C0E900120BE0DDE90601FFF7A6FC1F
:100E60000146E00704D13868021D3A60006801605D
:100E700028460EE7000024400000F03FF1D8FFFFB5
:100E8000426842B1016811F8013B23B1521EC0E92A
:100E90000012184670470121C160881E70474268E1
:100EA0005AB1C368016843B983688B4205D0491EB3
:100EB000521CC0E90012002070474FF0FF3070470D
:100EC0002DE9F05F82460078002715468B460AF12F
:100ED0000104B946302801D09DB113E014F8010B8C
:100EE0000127782803D0582801D045B10AE00DB178
:100EF000102D07D10027102514F8010B02E008255A
:100F000000E00A250026B0460EE005FB080005FBC0
:100F100006F1012701EB10461FFA80F8B6F5803F75
:100F200000D3B94614F8010B294600F069F80028EF
:100F3000EBDABBF1000F05D00FB1641E00E05446A0
:100F4000CBF80040B9F1000F06D006F067F8022197
:100F50000160C81EBDE8F09F48EA0640FAE72DE9A7
:100F6000F04D00231A461B1A8A4103DB002001467C
:100F7000BDE8F08DC1F30A52C1F3130141F48015AD
:100F80004FF0000BD10702D100186D41521E00270F
:100F9000044640F2FF11384601EB620A3E468046A5
:100FA000024600204FF48011FFF741FCC219714145
:100FB000BB1846EB0100B4EB030C75EB000C04D33B
:100FC000E41A65EB000517460E46241908F10100E6
:100FD0006D4180463428E3DDF91946EB0600091B14
:100FE000A84103D24FF0FF32134601E0002213461E
:100FF0001BEB070046EB0A51BDE8F04DFFF7F7BCCD
:101000003A2800D2303820F02002412A01D3A2F140
:101010003700884201D34FF0FF3070470EB540F2E1
:10102000334202920022CDE900221346FFF7EEFC84
:1010300003B000BD70B58C1810F8015B15F0070304
:1010400001D110F8013B2A1106D110F8012B03E061
:1010500010F8016B01F8016B5B1EF9D12B0705D469
:101060000023521E0DD401F8013BFAE710F8013BB2
:10107000CB1A921C03E013F8015B01F8015B521ECE
:10108000F9D5A142D8D3002070BD000010B5094C9D
:10109000E06900280CD009F09AFEE169884207D384
:1010A0000020E0610146BDE81040034802F08CBC1E
:1010B00010BD0000040000200407002070B50546A4
:1010C0000C46114802F0C4F9601E06281AD80F48D1
:1010D0000F4930F81400B1FBF0F10B480268D162FF
:1010E000C160006801EBD1714910416309F06FFEE6
:1010F00006492844E439C861BDE87040002102482F
:1011000002F0FEBB70BD000004070020E8000020D4
:1011100040420F0010EE100AB0F1894F08DB10EECC
:10112000100AB0F1934F03DADFED020A20EE200A35
:10113000704700000000803AFEE710B5040014D0AC
:10114000FFF742F9002810DD21180022491E0AE0AD
:1011500008780D2805D00A2803D0202801D00928B6
:1011600003D101F80129A142F2D210BD014801F0DA
:10117000E1BA000078080020014801F0DBBA000065
:10118000D8080020014801F0D5BA00001808002056
:1011900001681823CAB2103AB2FBF3F2054B6FF3A1
:1011A0000901032A9B5CC36500D9091D81650846B6
:1011B00070470000D0F6000810B5014600208B698A
:1011C0008A6A4FF0C07453B1B3F5005F15D072B1A5
:1011D000012A0CD0022A0AD0032A09D104E01AB14C
:1011E000012A06D0022A03D1C96AC90100D501200B
:1011F00010BDC96AA142FAD010BD002AF7D0012A59
:10120000F2D0022AF3D0032AF3D010BD30B504681F
:10121000256825F480252560046863608368402B79
:10122000036803D099600068C26030BD9A600068AE
:10123000C16030BD70B515460E46044604F0B0F8E6
:10124000CC2000F061F84E2000F05EF8284600F057
:101250005BF8304600F058F8204600F055F804F0EE
:101260009FF8CC2000F050F8482000F04DF8044CD6
:101270000121204601F0D8FC0028F9D070BD000003
:101280000010024070B5194E01221146304601F09F
:10129000D0FC052007F0D8FE08246D0800220121AB
:1012A000304601F0C6FC052007F0CEFE01221146B3
:1012B000304601F0BEFC052007F0C6FE0121304695
:1012C00001F0B2FC10B145F0800501E005F07F05AA
:1012D000412007F0B9FE01221146304601F0A9FC79
:1012E000641E14F0FF04D8D1284670BD00100240DF
:1012F00010B504F055F8CC2000F006F8BDE8104019
:10130000442000F001B8000070B5124E05460824D4
:1013100000220121304601F08CFC052007F094FEEC
:10132000E80701D0012200E000220121304601F04F
:1013300080FC412007F088FE01221146304601F072
:1013400078FC022007F080FE6D08641E14F0FF0494
:10135000DED170BD0010024000B587B01421684690
:10136000FFF709F80A480021026842F01002026003
:10137000006800F01000059001200090CDE9010107
:1013800003916946034801F059FB07B000BD000016
:1013900030380240001002400648016841F0807178
:1013A00001600548016841F00101016000214160D0
:1013B00070470000FCED00E0001000E0704770B5E1
:1013C0000D4606460024601C854201D1012200E042
:1013D0000022315DE0B205F067FD012009F0EAFC72
:1013E000641C042CEFDB70BD2DE9F0470446167831
:1013F00003F00700DFF85481089D91460F46082846
:1014000005D2DFE800F00416293C4F6275883006EB
:1014100002D598F81C2006E098F81C00012801D09D
:10142000012200E00022B9B2A0B204F003FA6D1E5E
:1014300076D0700602D598F81C2006E098F81C00BB
:10144000012801D0012200E00022601CB9B280B264
:1014500004F0F0F96D1E76D0B00602D598F81C2085
:1014600006E098F81C00012801D0012200E00022CB
:10147000A01CB9B280B204F0DDF96D1E63D0F00695
:1014800002D598F81C2006E098F81C00012801D02D
:10149000012200E00022E01CB9B280B204F0CAF9D7
:1014A0006D1E50D0300702D598F81C2006E098F841
:1014B0001C00012801D0012200E00022201DB9B249
:1014C00080B204F0B7F96D1E3DD0700702D598F8D0
:1014D0001C2006E098F81C00012801D0012200E041
:1014E0000022601DB9B280B204F0A4F96D1E2AD0AA
:1014F000B00702D598F81C2006E098F81C000128D7
:1015000001D0012200E00022A01DB9B280B204F097
:1015100091F96D1E17D0F00703D098F81C2007E052
:1015200011E098F81C00012801D0012200E00022FF
:10153000E01DB9B280B204F07DF96D1E03D019F838
:10154000016F083463E7BDE8F0870000848B00205A
:1015500030B585B000F0EFFEB24801F03DF8002054
:1015600001F032F800221146AFA000F07DFF01200B
:1015700001F02AF80D220021AEA000F075FF1A221A
:101580000021AFA000F070FF27220021AFA000F0E3
:101590006BFF34220021B0A000F066FF8022002102
:1015A000342000F06BFF34220021302000F0AFFF28
:1015B000AE4CE07828B14624012829D002287BD0FF
:1015C0002BE100223221AAA000F04EFF1A22322184
:1015D000AAA000F049FF94ED080A10EE100AFFF7E8
:1015E000BAF841EC100BA8A153EC102B684605F09B
:1015F000D9FC0D225A21684600F036FFA07808B1C8
:10160000A3A000E0A3A027225A2100F02DFF04E1AF
:10161000A14DB5F90020A1A1684605F0C3FC002248
:101620003221684600F020FFB5F900000028B5F926
:1016300000000EDD00EBC001C1EB8010C11700EB14
:10164000514004EBE03210230D21462000F061FFF1
:1016500011E000280FDAB5F90000102300EBC001FB
:10166000C1EB8010C11700EB5140A4EBE0320D211B
:10167000462000F033FF8B4DB5F900208AA1684663
:1016800005F090FC11223221684600F0EDFEB5F91C
:1016900000000028B5F900000FDD00EBC001C1EB30
:1016A0008010C11700EB514004EBE03221231E21D2
:1016B000462000F02EFF12E016E000280FDAB5F900
:1016C0000000212300EBC001C1EB8010C11700EB2B
:1016D0005140A4EBE0321E21462000F0FFFE744D85
:1016E000B5F9002073A169E0744DB5F9002074A12B
:1016F000684605F057FC00223221684600F0B4FE2F
:10170000B5F900000028B5F900000EDD00EBC001BE
:10171000C1EB8010C11700EB514004EBE032102305
:101720000D21462000F0F5FE11E000280FDAB5F992
:101730000000102300EBC001C1EB8010C11700EBCB
:101740005140A4EBE0320D21462000F0C7FE5E4D73
:10175000B5F9002054A1684605F024FC112232217D
:10176000684600F081FEB5F900000028B5F90000D8
:101770000EDD00EBC001C1EB8010C11700EB514042
:1017800004EBE03221231E21462000F0C2FE11E0CE
:1017900000280FDAB5F90000212300EBC001C1EBEE
:1017A0008010C11700EB5140A4EBE0321E2146200F
:1017B00000F094FE454DB5F9002045A1684605F0BE
:1017C000F1FB22223221684600F04EFEB5F90000FE
:1017D0000028B5F900000EDD00EBC001C1EB801060
:1017E000C11700EB514004EBE03232232F21462099
:1017F00000F08FFE11E000280FDAB5F90000322367
:1018000000EBC001C1EB8010C11700EB5140A4EB0D
:10181000E0322F21462000F061FE00F0EBFE05B023
:1018200030BD0000ECF50008CAB5CAB1BCE0B2E2B8
:1018300000000000CAFDBEDDC7FACFDF00000000D7
:10184000CEDECFDFCDA8D0C500000000B2CECAFDED
:10185000C9E8D6C3000000004B31A6E6204B32A1F8
:10186000B6204B33A1B7204B34A6E700040000207C
:10187000B5B1C7B0CEC2B6C8A3BA0000D5F0B6AFF6
:10188000B1A8BEAFA3BA0000252E3166A1E60000C4
:10189000CAC70000B7F10000BC01002061783A25FA
:1018A00036640000BE01002061793A2536640000EC
:1018B000C0010020617A3A2536640000C201002090
:1018C00067783A2536640000C4010020C601002074
:1018D000677A3A2536640000F0B52DED048B8BB0A5
:1018E00000F029FDE14800F077FE00221146E0A05B
:1018F00000F0BAFD002000F067FE0D220021DFA0FD
:1019000000F0B2FD012000F05FFE1A220021DEA0EF
:1019100000F0AAFD27220021DEA000F0A5FD342260
:101920000021DFA000F0A0FD80220021342000F083
:10193000A5FD34220021302000F0E9FDDD4C3026E9
:101940003425E0789FEDDC0ADC4F9FEDDD8ADFED8A
:10195000DD8ADD4BDFF874C305287DD2DFE800F0B7
:10196000038AD2FDFC00D4ED080A0521FDEEE00A51
:1019700010EE900A801C90FBF1F000EB8000411FFC
:1019800000EE901A401DB8EEE08A00EE900AB8EE24
:10199000E09A79EE480AC0EE208A94ED080A10EE2B
:1019A000100AFEF7D8FE41EC100BC9A153EC102B26
:1019B000684605F0F7FA00223221684600F054FD2F
:1019C00094ED0B0AB4EEC80AF1EE10FA1ADBB4EE8D
:1019D000C90AF1EE10FA15D8002794ED0B0AF11997
:1019E000CA1C70EE480A00EE105AB8EEC00A00EEAB
:1019F000E80ABDEEC00A10EE100A00F03FFDBF1D60
:101A0000502FEADB002723E0B448F21900EB8701EE
:101A1000501E91ED000A70EE480A00EE105AB8EE22
:101A2000C00A00EEE80ABDEEC00A10EE103A11ED51
:101A3000010A70EE480A00EE105AB8EEC00A00EE35
:101A4000E80ABDEEC00A10EE101A00F01DFD7F1C62
:101A5000206C874203DA00E002E1502FD4DBDBE0A8
:101A60009FA105A805F09EFA27225A2105A800F09B
:101A7000FBFCF5E0DFED9C8A9FED9C8A97ED000A68
:101A800010EE100AFEF767FE41EC100B98A153EC24
:101A9000102B684605F086FA00223221684600F0D5
:101AA000E3FC80222020314600F0E8FC002723E000
:101AB0009348F21900EB870090ED000A70EE680A77
:101AC00000EE105AB8EEC00A00EEC80ABDEEC00A19
:101AD00010EE103A10ED010A501E70EE680A00EE8A
:101AE000105AB8EEC00A00EEC80ABDEEC00A10EEE9
:101AF000101A00F0C9FC7F1C606C874201DA502F7D
:101B0000D6DB89E093ED000A10EE100AFEF723FE03
:101B100041EC100B7BA153EC102B684605F042FA08
:101B200000223221684600F09FFC802220203146AE
:101B300000F0A4FC002726E0764800EB870090ED3B
:101B4000000A70EE480A00EE105AB8EEC00A00EE25
:101B5000E80ABDEEC00A01E064E01AE010EE103AB7
:101B600010ED010AF219501E70EE480A00EE105AEC
:101B7000B8EEC00A00EEE80ABDEEC00A10EE101A78
:101B800000F082FC7F1CA06C874245DA502FD3DB2B
:101B900042E09CED000A10EE100AFEF7DCFD41EC7D
:101BA000100B5DA153EC102B684605F0FBF90022E9
:101BB0003221684600F058FC80222020314600F097
:101BC0005DFC002723E05848F21900EB8701501E06
:101BD00091ED000A70EE480A00EE105AB8EEC00A05
:101BE00000EEE80ABDEEC00A10EE103A11ED010A4F
:101BF00070EE480A00EE105AB8EEC00A00EEE80A8D
:101C0000BDEEC00A10EE101A00F03EFC7F1CE06C26
:101C1000874201DA502FD6DBA26A322A3FF420AF86
:101C200052001DE797ED000A1A225821F1EE400AF2
:101C3000012064469CED001A1D4693ED000A03F056
:101C40001BFB97ED000A1B480A23F1EE400A4822CD
:101C5000012194ED001A95ED000A643003F0E0FBD9
:101C600000F0C8FC0BB0BDEC048BF0BDECF5000837
:101C7000CAB5CAB1BCE0B2E200000000CAFDBEDDD8
:101C8000C7FACFDF00000000CEDECFDFCDA8D0C581
:101C900000000000B2CECAFDC9E8D6C300000000B3
:101CA0004B31A6E6204B32A1B6204B33A1B7204BD7
:101CB00034A6E7000400002000002042D8010020E4
:101CC000000034C3398EE33DDC010020E001002038
:101CD000CEC2B6C83A252E3166A1E6000402002025
:101CE00025646D73000000000000B4C2398E633EAD
:101CF000B8A9D1F6BDC73A252E3166A1E300000090
:101D000044030020BAE1B9F6BDC73A252E3166A1D9
:101D1000E300000084040020BABDCFF2BDC73A251D
:101D20002E3166A1E3000000C405002030B59BB051
:101D300000F001FB4D4800F04FFC002211464CA082
:101D400000F092FB0D2200214CA000F08DFB002042
:101D500000F03AFC1A2200214BA000F085FB012084
:101D600000F032FC272200214AA000F07DFB342243
:101D700000214BA000F078FB4E4CE07810B1012818
:101D800017D065E0002232214B4800F06DFB02F0D5
:101D900027FA08B149A000E04AA01022322100F041
:101DA00063FB207A08B149A000E04AA0202232213A
:101DB0004CE0206B4FF4806500EE100AA842B8EEAC
:101DC000400A09D210EE100AFEF7C5FC41EC100BD8
:101DD00042A153EC102B0AE0FFF79CF910EE100A19
:101DE000FEF7B9FC41EC100B3FA153EC102B6846F9
:101DF00005F0D8F800223221684600F035FB606B10
:101E000000EE100AA842B8EE400A09D210EE100AFD
:101E1000FEF7A1FC41EC100B36A153EC102B0AE0AD
:101E2000FFF778F910EE100AFEF795FC41EC100B65
:101E300033A153EC102B0DA805F0B4F80D2232217C
:101E40000DA800F011FB2722322130A000F00CFB7E
:101E500080220021342000F011FB342200213020A8
:101E600000F055FB00F0C6FB1BB030BDECF50008E0
:101E7000CAB5CAB1BCE0B2E200000000CAFDBEDDD6
:101E8000C7FACFDF00000000CEDECFDFCDA8D0C57F
:101E900000000000B2CECAFDC9E8D6C300000000B1
:101EA0004B31A6E6204B32A1B6204B33A1B7204BD5
:101EB00034A6E70004000020B4AB0020D2D1C1ACAE
:101EC000BDD30000CEB4C1ACBDD30000C9CFB4AB0C
:101ED000D6D00000CEB4C9CFB4AB000053454E44B9
:101EE0003A252E306642000053454E443A252E32A4
:101EF000664B4200524543563A252E30664200005A
:101F0000524543563A252E32664B42004B455935D1
:101F10003A434C45414E000010B586B000F00BFA34
:101F2000524800F059FB0022114651A000F09CFAE3
:101F30000D22002151A000F097FA1A22002152A090
:101F400000F092FA002000F03FFB2722002151A070
:101F500000F08AFA012000F037FB3422002150A063
:101F600000F082FA80220021342000F087FA342227
:101F70000021302000F0CBFA002232214DA000F0E9
:101F800073FA0D2232214EA000F06EFA1A2232218D
:101F90004EA000F069FA272232214FA000F064FA27
:101FA000504CE06AFEF7D7FB41EC100B4EA153EC0E
:101FB000102B684604F0F6FFE07910B9002000F01D
:101FC00003FB00226821684600F04EFA012000F071
:101FD000FBFA627946A1684604F0E4FFE079012843
:101FE00002D1002000F0F0FA0D227421684600F0C2
:101FF0003BFA012000F0E8FAA2793EA1684604F01D
:10200000D1FFE079022802D1002000F0DDFA1A2287
:102010006821684600F028FA012000F0D5FAA0896E
:102020009FED351A00EE100AF8EE400A80EE810AA4
:1020300010EE100AFEF78FFB41EC100B2FA153ECB2
:10204000102B684604F0AEFFE079032802D100208F
:1020500000F0BAFA27226821684600F005FA01204C
:1020600000F0B2FA00F0C6FA06B010BDECF50008B8
:10207000CAB5CAB1BCE0B2E200000000CAFDBEDDD4
:10208000C7FACFDF00000000CEDECFDFCDA8D0C57D
:1020900000000000B2CECAFDC9E8D6C300000000AF
:1020A0004B31A6E6204B32A1B6204B33A1B7204BD3
:1020B00034A6E700CEC2B6C8C9CFCFDE3A000000D2
:1020C000D5F0B6AFC1E9C3F4B6C83A00B1A8BEAF07
:1020D000CAB1B3A43A000000C9CFB4ABBCE4B8F4B1
:1020E0003A00000004000020252E3066A1E6000022
:1020F000256400002564530000007A44252E3166D3
:102100005300000010B5294C6069C8B108F05FFEAB
:10211000616901F5FA61884215D800F00CF924488C
:1021200000F05AFA0522202122A000F09DF9192280
:10213000142123A000F098F92B22002123A017E0FE
:1021400008F045FE2FE008F042FE616941F2883256
:10215000114488420FD800F0EEF8154800F03CFA20
:10216000002211461EA000F07FF92022002123A0AA
:1021700000F07AF912E008F02AFE616901F5FA51DF
:1021800088420FD800F0D7F800221146224800F00C
:1021900073F900224121214800F06EF9BDE810409A
:1021A00000F028BA0020606110BD0000040000208B
:1021B00030DC0008D7A8D2B5CAB5BCF900000000D1
:1021C000D7DBBACFC9E8BCC649490000B7C0BBF0ED
:1021D000A1A2B7C0B5C1BCE0B2E2C6F700000000E2
:1021E000B3C9D4B1313ACCC0C4FEB1EA0A20202030
:1021F000202020313832303532323300B3C9D4B1E7
:10220000323ACDF5D3EEB7B20A202020202020317B
:10221000383230353232350044CA000860CC00080C
:1022200072B6FEE70A2805D00D2805D003490969D2
:102230000968084700F096B870470000848B0020BA
:102240007CB514460D4682688188CDE9001243882A
:1022500002882146284602F0E3F97CBD7CB51E4C7D
:10226000054629462069806900F038F8002831D0F9
:1022700041680088281A01EBC0056968A878CDE993
:10228000000120692A78B4F91610037DB4F914000E
:1022900002F0C6F92169487D097D884212D9227F62
:1022A000012A01D0012200E000220092A28A2B78AC
:1022B000E68A1A44304483B2701881B292B2A08A7E
:1022C00003F008FA2269B4F914006978927D11FBD1
:1022D0000200A0827CBD0000848B002006E0028802
:1022E0008A4202D842888A4202D280680028F6D107
:1022F0007047000070B5094D044621462869806981
:10230000FFF7ECFF002808D041680088201A11F878
:1023100030002969897D10FB01F070BD848B00209D
:1023200001200880704710B58069FFF7D7FF0028AB
:1023300000D0012010BD10B50021084600F01CF9A6
:10234000402380220021BDE810400846AFF3008002
:1023500038B500249BB292B289B280B2009403F0E7
:10236000B9F938BD00B500F0EBF80249CA8A10444B
:10237000C88200BD848B00202DE9FC47060054D0A4
:1023800000F0DEF8374C8146B4F9148000F0DEF836
:10239000E18A0746C81BE0823DE000BF47F6FF71B7
:1023A000304600F05CF982460146304600F03EF9C6
:1023B0000546A07E00F0030001283CD0022836D05C
:1023C0000020A18A6A46081AA082ADF80000691EA2
:1023D0000844ADF80400E08AADF80200A9F101015B
:1023E0000844ADF806005146304600F005F9BDF846
:1023F0000200E0825146304600F0F6F8064430789C
:102400000A281AD00D2818D0BDF800002844A08250
:10241000307818B1761C30780028BFD1E08A384473
:10242000E082608B20F003006083BDE8FC8705EB51
:10243000D5704010C5E72846C3E7A07E00F0030032
:1024400001280BD0022809D00020A08230780A2869
:10245000DED1E18A01EB0900E082D9E7A4F814801B
:10246000F4E70000848B0020024B9982DA82FFF7A8
:1024700083BF0000848B0020FFF7E2BE0B460146BD
:10248000184602F011B9000038B5054C9BB292B263
:10249000247F89B280B2009403F047F938BD000070
:1024A000848B00200C4B30B4B3F902408C4210DC1A
:1024B000B3F906408C420CDBB3F90040844208DCDF
:1024C000B3F90430834204DB30BC89B280B203F03C
:1024D000B1B930BC70470000848B00202DE9F04179
:1024E00007460D4616461C4602F0DEF832462146E7
:1024F000384602F0D9F8621E691C384602F0F6F838
:10250000621E691C3046BDE8F04102F0EFB802F0EF
:10251000EDB82DE9F0411D46164607460C4605E08C
:1025200032462146384602F0BFF8641CAC42F7DB65
:10253000BDE8F0810149096949680847848B00209A
:1025400001480069407D7047848B002009490020C4
:10255000897E01F00C020749042A096906D0082A7D
:1025600001D00C2A01D1087D40087047087D401E2B
:1025700070470000848B002070B50D4604F0F6FC17
:102580000446284604F0F8FC204370BD0B4910B502
:102590002E2008700A4800217F220180418082801D
:1025A0003F22C2808182C1820649016101214172BC
:1025B000017703F0C3F9002010BD0000880100205E
:1025C000848B0020ECFC000802490A7F824200D084
:1025D00008777047848B0020024A116900B11061AE
:1025E00008467047848B0020002000E0401C491EF4
:1025F000FCD2704703F04AB970B50B4B1268044621
:102600009A821214DA820D460BE000BF14F8010B17
:102610007F2804D914F8011B6D1E41EA0020FFF742
:1026200001FE6D1EF2D570BD848B002070B50D4685
:1026300004004FF000060CD10FE0641C6D1E7F28D3
:1026400004D914F8011B6D1E41EA0020FFF772FF48
:102650000644207808B1002DEFDA304670BD002224
:1026600008E0401C7F2B02D9401C521C01E00A2BC1
:1026700004D0521C03780BB18A42F2DB104670473B
:102680002DE9F0410446876D00F0D8FA064694F82B
:1026900035000025022806D08020606584F834507B
:1026A0000120BDE8F0812068016821F01601016079
:1026B0002068416921F080014161206C08B9A06C5B
:1026C00020B12068016821F00801016020680168DC
:1026D00021F0010101600BE000F0B0FA801B052839
:1026E00006D92020606504F8345F03206070D8E7C5
:1026F00020680068C007EFD194F85C103F20884044
:10270000B86004F8345F012060700020C9E790F8D9
:102710003510022903D08021416501207047052131
:1027200080F835100068016821F001010160002087
:10273000704700002DE9F84304464FF00009CDF83A
:10274000009063484FF41651A56D0068B0FBF1F797
:102750002E6894F85C10082000FA01F131420FD085
:1027600021680A6852070BD50A6822F004020A6041
:1027700094F85C108840A860606D40F001006065CE
:1027800094F85C104FF0010808FA01F0304208D0CC
:1027900021684969090604D5A860606D40F002000F
:1027A000606594F85C1004208840304208D02168AD
:1027B0000968890704D5A860606D40F00400606571
:1027C00094F85C1010208840304218D021680968C5
:1027D000090714D5A86020680168490304D500687A
:1027E000000308D5A16C07E00168C90503D401689E
:1027F00021F008010160216C09B12046884794F856
:102800005C1020208840304231D021680968C90618
:102810002DD5A86094F8350005282068016806D0F9
:10282000490347D5006800031DD4616C1CE021F00A
:10283000160101602068416921F080014161206C2E
:1028400008B9A06C20B12068016821F0080101607E
:1028500094F85C103F208840A86084F8349084F895
:102860003580216D1FE0E16B09B120468847606D1E
:1028700000282BD0606DC00714D0052084F83500E7
:102880002068016821F0010101600098401C00905F
:10289000B84203D820680068C007F6D184F83490A5
:1028A00084F83580E16C002910D001B02046BDE8E5
:1028B000F04308470168C905D5D4016821F010012B
:1028C000016084F8349084F83580CCE7BDE8F88363
:1028D000040100202DE9F041044600F0AFF906465E
:1028E0005CB1002584F83450022084F8350020685B
:1028F000016821F0010101600DE00120BDE8F081D7
:1029000000F09CF9801B052805D920206065032074
:1029100084F83500F2E720680068C007F0D122682B
:10292000116820480140D4E901031843D4E9033673
:102930003343184363691843A3691843E369184391
:10294000236A18430843616A042903D1D4E90B13AD
:1029500019430843106020684069666A20F0070147
:1029600030460E43012704280CD1A06A0643E06AD2
:1029700040B12046FEF720FC20B14020606584F87D
:102980003570BAE7206846612046FEF701FC94F8EE
:102990005C203F2191408160656584F8357000209E
:1029A000ACE700003F8010F02DE9F0410446866D51
:1029B00090F83400002501280DD0012084F834005F
:1029C00094F835700020012F07D084F834000225D8
:1029D0002846BDE8F0810220FBE7022784F8357025
:1029E00060652046FEF712FC94F85C103F2088409A
:1029F000B0602068016841F016010160206C20B1D0
:102A00002068016841F0080101602068016841F018
:102A100001010160DCE7000070B5044600F00EF92A
:102A20000546601C02D004480078044400F006F912
:102A3000401BA042FAD370BDF80000202DE9F84FEA
:102A4000DFF8B8A1002201250AF1040B03264FF09C
:102A50000F090BF1040E00BF0B6805FA02F42340C6
:102A6000A3426FD10F7907F00307012F01D0022F86
:102A700016D187684FEA420806FA08FC27EA0C07D5
:102A8000D1F80CC00CFA08FC4CEA070CC0F808C0DE
:102A90004768A7430C79C4F3001494403C43446056
:102AA0000C79E443A4070AD0C4684FEA420C06FA42
:102AB0000CF7BC438F6807FA0CF72743C7600C7903
:102AC00004F00304022C12D1D40800EB840CDCF8CF
:102AD00020405707FF0E09FA07F824EA0804D1F846
:102AE000108008FA07F848EA0408CCF82080046847
:102AF0004FEA420C06FA0CF7BC430F7907F00307C4
:102B000007FA0CF7274307604C68E40070D53C4C8B
:102B1000276847F480472760246822F0030704F4FD
:102B200080440094374C07EB040CDCF80848970706
:102B30004FEA177809FA08F7BC43334FB84202D17D
:102B4000002724E054E0314FB84201D101271EE0B4
:102B50002F4FB84201D1022719E02E4FB84201D1C0
:102B6000032714E02C4FB84201D104270FE02B4F6C
:102B7000B84201D105270AE0294FB84201D1062702
:102B800005E0284FB84201D1072700E0082707FADF
:102B900008F72743CCF80878DAF800405746D1F810
:102BA00004C09C435FEACC3C00D51C433C60DBF88E
:102BB00000405F46D1F804C09C435FEA8C3C00D5DE
:102BC0001C433C60DEF800407746D1F804C09C43CB
:102BD0005FEACC2C00D51C433C60084F0C373C68A6
:102BE000D1F804C09C435FEA8C2C00D51C433C60A8
:102BF000521C102AFFF430AFBDE8F88F003C0140B2
:102C0000443802400030014000000240000402400D
:102C100000080240000C0240001002400014024074
:102C200000180240001C02400069084000D001204A
:102C300070470AB1816170470904FBE70148806869
:102C400070470000F80000200248816802781144B3
:102C500081607047F80000200B4810B5016841F40E
:102C600000710160016841F480610160016841F414
:102C700080710160032000F08DF8002000F006F85C
:102C800000F03EF8002010BD003C024010B50146A7
:102C900088B00022372000F05DF8372000F04CF8B3
:102CA00013480024016841F020010160006805A973
:102CB00000F020000690684600F018F900F036F9A0
:102CC0000C494000B0FBF1F10C480B4A491E026070
:102CD00040F2E732C0E90324C0E9011400F076FBBA
:102CE00010B1012008B010BD044800F0EDFBF9E779
:102CF0004038024040420F000014004038090020D4
:102D00000C4882B0016841F480410160006800F421
:102D1000804000900748001F016841F08051016029
:102D20000068002200F0805000900F21901E02B039
:102D300000F010B844380240002809DB00F01F0200
:102D4000012191404009800000F1E020C0F800110D
:102D500070470000F0B40E4B1B680C46C3F302230F
:102D6000C3F10705042D00D90425191D072901D237
:102D7000002300E0DB1E012606FA05F1491E214072
:102D800099409E40761E16403143F0BC04F036B99F
:102D90000CED00E0064900F0070208684FF6FF035B
:102DA000184040EA0220034A1043086070470000C0
:102DB0000CED00E00000FA052DE9F0470E46050095
:102DC00065D0DFF81481D8F80000F7B200F00700F2
:102DD000B04207D288F80070D8F8000000F0070071
:102DE000B04254D128683D4C810712D5400703D525
:102DF000206840F4E05020602878000703D5206860
:102E000040F4604020602068A96820F0F00008438A
:102E100020602878C0072DD030496868083901281B
:102E200012D0022813D0032811D00968890700297D
:102E30002DDA216821F0030101432160FFF7FEFE36
:102E4000814641F2883A0EE009688903EFE7096894
:102E50008901ECE7FFF7F2FEA0EB0901514502D929
:102E60000320BDE8F0872068696800F00C00B0EB33
:102E7000810FEFD1D8F80010404601F00701B142B0
:102E800007D90770006800F00700B04201D00120A8
:102E9000E7E72878400705D52068E96820F4E05086
:102EA000084320602878000706D52068296920F4A7
:102EB000604040EAC100206000F058F82168084AEC
:102EC000C1F30311515CC840064908600648006818
:102ED000FFF7DCFE0020C4E7003C02400838024057
:102EE000D8F6000804010020FC0000200F22026038
:102EF0000C4A136803F003034360136803F0F00304
:102F00008360136803F4E053C36012684FF4E05326
:102F100003EAD20202610448006800F0070008607A
:102F20007047000008380240003C02400448054950
:102F300000680968044AC1F38221515CC8407047A7
:102F40000401002008380240E8F60008044805495A
:102F500000680968044AC1F34231515CC8407047B7
:102F60000401002008380240E8F60008154810B5B2
:102F7000006810F00C02144813D04110042A0FD03E
:102F8000082A0ED10F4C241F2268236802F03F024A
:102F90005B0207D52068C0F38810A0FB010106E0A2
:102FA000084610BD2168C1F38811A1FB0001002370
:102FB000FDF766F92168C1F30141491C4900B0FBE6
:102FC000F1F010BD083802400024F4002DE9F84F5C
:102FD00004006ED02078DFF84C93C007A9F10405F7
:102FE0004AD009F104000168C1F38101012908D028
:102FF0000068C0F3810002280AD1D9F8000040021D
:1030000006D52868800337D560680028E1D033E012
:103010006068B0F5803F10D0B0F5A02F286810D0C0
:1030200020F480302860286820F4802028606068C0
:10303000A8B1FFF703FE06460DE0286840F4803093
:10304000F4E740F480202860F7E700BFFFF7F6FDC3
:10305000801B642873D828688003F7D50CE0FFF73D
:10306000EDFD064605E000BFFFF7E8FD801B642884
:10307000F0D828688003F7D42078DFF8AC82800786
:103080004FF0000A3ED5A748001D016811F00C0F53
:1030900008D00068C0F3810002280BD1D9F80000E5
:1030A000400207D42868800716D5E068012800D1BF
:1030B00012E033E1E068B8B10120C8F80000FFF782
:1030C000BDFD064605E000BFFFF7B8FD801B0228E6
:1030D000C0D828688007F7D52868216920F0F80053
:1030E00040EAC10028600DE0C8F800A0FFF7A6FD87
:1030F000064604E0FFF7A2FD801B02281FD82868BF
:103100008007F7D42078000722D5864F8748616969
:10311000703771B101210160FFF790FD064604E0B0
:10312000FFF78CFD801B022809D838688007F7D587
:103130000EE0C0F800A0FFF781FD064605E082E042
:10314000FFF77CFD801B02287DD838688007F7D404
:103150002078400768D5DFF8CCB100270BF13C0B95
:10316000DBF80000C0000BD4DBF8001041F0805108
:10317000CBF80010DBF80000012700F08050009031
:103180006B4E3068C00510D4306840F480703060F9
:10319000FFF754FD009005E0FFF750FD0099401A3D
:1031A000022850D83068C005F6D55E4EA0686C364F
:1031B00001280FD00528306810D020F001003060C1
:1031C000306820F004003060A068B8B1FFF736FD29
:1031D00000900FE0306840F00100F4E740F0040098
:1031E0003060F7E7FFF72AFD0099411A41F2883075
:1031F000814266D830688007F4D50EE0FFF71EFDE7
:10320000009007E0FFF71AFD0099411A41F288305B
:10321000814256D830688007F4D42FB1DBF8001013
:1032200021F08051CBF80010A069C8B33D49091DB9
:103230000968C1F3810102294AD00228504607D00B
:10324000C8F8600000E03CE0FFF7F8FC04463BE013
:103250004746C8F86000FFF7F1FC064605E000BFEE
:10326000FFF7ECFC801B02282BD828688001F7D4DC
:10327000D4E907010843A16A2E4A490802EB01413B
:10328000626A41EA8211084394F82C1040EA016115
:10329000C9F8001001203866FFF7D0FC044606E0AC
:1032A0003EE000BFFFF7CAFC001B022809D82868CF
:1032B0008001F7D534E000BFFFF7C0FC001B0228F7
:1032C00002D90320BDE8F88F28688001F4D427E0F4
:1032D0000128F7D0D9F80000E26900F4800191429A
:1032E0001CD1226A00F03F01914217D147F6C0710C
:1032F000626A0140B1EB821F10D1A26A4FF0FF3326
:1033000000F4403103EB5202B1EB024F06D194F8C6
:103310002C1000F07060B0EB016F01D00120D1E7FC
:103320000020CFE70438024000004742800E4742A9
:10333000007000400000FFFF7047704770B590F8C4
:103340003C20012A32D0012480F83C40022280F83F
:103350003D2003685A689D6822F070060A6832436F
:103360005A60134B02689A4214D0B2F1804F11D0C8
:10337000104B9A420ED0104B9A420BD00F4B9A42F0
:1033800008D00F4B9A4205D00E4B9A4202D00E4BFA
:103390009A4204D1496825F080031943916080F86E
:1033A0003D40002180F83C10084670BD022070BDF1
:1033B000000001400004004000080040000C0040F4
:1033C00000040140004001400018004010B5040016
:1033D00003D094F83D0010B107E0012010BD00209B
:1033E00084F83C00204600F01FF8022084F83D00DD
:1033F000211D206803F034F9012084F8460084F888
:103400003E0084F83F0084F8400084F8410084F8CE
:10341000420084F8430084F8440084F8450084F8AE
:103420003D00002010BD000008B500680649884234
:1034300008D10648016841F002010160006800F00F
:103440000200009008BD0000000400404038024027
:1034500090F83D10012901D001207047022180F829
:103460003D1000681149884214D0B0F1804F11D04E
:103470000F4988420ED00F4988420BD00E4988422E
:1034800008D00E49884205D00D49884202D00D4926
:10349000884204D1816801F00701062903D0016840
:1034A00041F0010101600020704700000000014070
:1034B0000004004000080040000C004000040140EF
:1034C000004001400018004090F83D10012901D053
:1034D00001207047022180F83D100168CA6842F05F
:1034E0000102CA6000681149884214D0B0F1804FCF
:1034F00011D00F4988420ED00E4988420BD00E4998
:10350000884208D00D49884205D00D49884202D032
:103510000C49884204D1816801F00701062903D0D3
:10352000016841F001010160002070470000014086
:103530000004004000080040000C0040000401406E
:10354000004001400018004070B5044690F83C006F
:10355000012817D0012584F83C50022084F83D0052
:103560002068826822F0770222F47F428260086835
:10357000502830D00DDC20284DD005DC98B3102821
:103580003BD148E0022070BD302844D0402834D1DF
:1035900039E0602828D0702806D0B0F5805F2CD0A4
:1035A000B0F5005F29D10AE0CB68D1E9012120689C
:1035B00003F0C7F82068816841F0770109E0CB6823
:1035C000D1E90121206803F0BCF82068816841F44A
:1035D0008041816011E0CA684968206803F086F97B
:1035E0005021206807E016E0CA684968206803F0A7
:1035F0008EF96021206803F0AEF884F83D50002079
:1036000084F83C0070BDCA684968206803F06EF910
:1036100040212068EFE7226801461046EBE770473B
:1036200070B50446006801694FF00005C943890779
:1036300015D4C168C943890711D4E91E016101206D
:103640002077206880698007204602D0FFF7E7FFD7
:1036500004E000F0C1F8204600F050F9257720681A
:103660000169C943490717D4C168C943490713D43D
:103670006FF004010161022020772068806910F456
:10368000407F204602D0FFF7CAFF04E000F0A4F814
:10369000204600F033F9257720680169C9430907FE
:1036A00016D4C168C943090712D46FF0080101613B
:1036B000042020772068C0698007204602D0FFF7E9
:1036C000AEFF04E000F088F8204600F017F92577F7
:1036D00020680169C943C90617D4C168C943C9062E
:1036E00013D46FF010010161082020772068C069B1
:1036F00010F4407F204602D0FFF791FF04E000F075
:103700006BF8204600F0FAF8257720680169C94374
:10371000C90708D1C168C943C90704D1891E01611D
:10372000204600F08FF920680169C943090609D4D1
:10373000C168C943090605D46FF0800101612046C4
:10374000FFF7FAFD20680169C943490609D4C16839
:10375000C943490605D46FF040010161204600F0DD
:103760007BF920680169C94389060BD4C168C94344
:10377000890607D46FF0200101612046BDE8704042
:10378000FFF7DBBD70BD000010B586B00446142104
:103790006846FCF7F0FD0D492068884214D10C48BA
:1037A0000021026842F002020260006800F002009C
:1037B0000590102000900220CDE90101CDE9031011
:1037C00069460448FFF73AF906B010BD000400400E
:1037D0003038024000040240704770B5044690F84B
:1037E0003C000D4601280AD0012084F83C0042B17B
:1037F000042A18D0082A2AD00C2A4DD139E00220F8
:1038000070BD206802F0B0FF2068816941F00801B6
:1038100081612068816921F00401816120688169EA
:103820002A69114311E0206802F0CEFF2068816907
:1038300041F4006181612068816921F480618161C6
:10384000206881692A6941EA0221816124E02068B7
:1038500002F0F0FF2068C16941F00801C1612068F1
:10386000C16921F00401C1612068C1692A6911435D
:1038700011E0206803F012F82068C16941F400618A
:10388000C1612068C16921F48061C1612068C1699A
:103890002A6941EA0221C161002084F83C0070BD20
:1038A00010B5040003D094F83D0010B107E00120EA
:1038B00010BD002084F83C00204600F01EF80220D5
:1038C00084F83D00211D206802F0CAFE012084F822
:1038D000460084F83E0084F83F0084F8400084F8F5
:1038E000410084F8420084F8430084F8440084F8DE
:1038F000450084F83D00002010BD7047704700006F
:1039000010B50446022249B104290ED0082913D06B
:1039100094F84100012816D0012010BD94F83E0013
:103920000128F9D184F83E200FE094F83F000128E7
:10393000F2D184F83F2008E094F840000128EBD150
:1039400084F8402001E084F841200122206802F040
:10395000EBFE16492068164A884201D0904203D1F6
:10396000436C43F4004343642068884213D0B0F1B1
:10397000804F10D00F4988420DD00F4988420AD09D
:103980000E49884207D0904205D00D49884202D0A6
:103990000C49884204D1816801F00701062903D04F
:1039A000016841F001010160002010BD00000140EC
:1039B000000401400004004000080040000C0040EA
:1039C000004001400018004030B504460D46006834
:1039D000002202F0A9FE194B41F2111120688A1051
:1039E000984202D0164B984209D1036A0B4206D185
:1039F000036A134203D1436C23F4004343642068F9
:103A0000036A0B4206D1016A114203D1016821F019
:103A10000101016001203DB1042D08D0082D09D01D
:103A200084F84100002030BD84F83E00FAE784F8B5
:103A30003F00F7E784F84000F4E700000000014091
:103A40000004014000680349884201D1FFF7FCB837
:103A500070470000001400407047704710B50446DE
:103A60000068416994F83D20C1F3C011212A0BD1AF
:103A700051B1416921F080014161606B08B1FEF7ED
:103A8000FFFD204603F015F82068416994F83E20B8
:103A9000C1F38011222A0BD151B1416921F04001BB
:103AA0004161A06B08B1FEF7EBFD204602F0E9FF93
:103AB000002010BD70470000F8B502680446106889
:103AC000D168536910F00F0F4FF0000554D003F088
:103AD000010601F4907737435FD0C20705D0CA05CD
:103AE00003D5226C42F001022264420705D5DA07B1
:103AF00003D0226C42F002022264820705D5DA0765
:103B000003D0226C42F004022264020707D501F0C0
:103B10002002324303D0226C42F008022264226C5D
:103B2000002A35D0800604D5880602D5204602F04A
:103B3000C9FF20684069216CC0F3801001F00801C2
:103B40000143204625D002F09CFF206841694906C8
:103B50001BD5416921F040014161A06BA8B15949D1
:103B60000165A06BFEF7D3FD002811D0A06B016D9D
:103B700001B0BDE8F040084783060ED58B060CD592
:103B80002046BDE8F84002F09DBF2046FFF792FFB7
:103B9000F8BDFFF78FFF2564F8BD266B2023012EAB
:103BA00053D1C60651D5CE064FD510685068009047
:103BB000506940062BD5A16B086840680004000CD2
:103BC000EAD0A68D8642E7D9E085C869B0F5807F46
:103BD00018D0D06820F48070D0602068416921F04E
:103BE000010141612068416921F04001416184F88F
:103BF0003E3025632068C16821F01001C160A06BD0
:103C0000FEF73EFDA08DE18D401A81B219E0A08D36
:103C1000E18D401A81B2E08D0028BDD00029BBD0D3
:103C2000D06820F49070D0602068426922F00102D0
:103C3000426184F83E3025632068C26822F0100299
:103C4000C2602046FFF709FFF8BD05062BD50D061B
:103C500029D594F83D002128F6D1A068B0F5805F01
:103C600001D12069B0B1206A411C2162216800782D
:103C70004860E08C401E0004000CE084E4D1206821
:103C8000C16821F08001C1602068C16841F0400135
:103C9000C160F8BD206A0088C0F308005060206A47
:103CA000801C2062E5E74006F3D54806F1D5D168CF
:103CB000204621F04001D16084F83D3000F083F9C6
:103CC000F8BD0000B569000870B5040004D094F890
:103CD0003D00002510B106E0012070BD84F83C5085
:103CE000204600F023F8242084F83D002068C168B5
:103CF00021F40051C160204602F03CFF20680169B8
:103D000021F4904101612068416921F02A0141615B
:103D10002068C16841F40051C1602564202084F806
:103D20003D0084F83E00002070BD00002DE9F04702
:103D300086B0054614216846FCF71DFB61486149C1
:103D4000DFF87C812F680024143902220323DFF876
:103D500078A106154FF0070C4FF00069474533D1A5
:103D6000076847F010070760006800F01000059032
:103D7000086840F0010008600868694600F001002A
:103D8000059058028DE81500CDE9033C5046FEF73A
:103D900055FE4F4F4D483860C7E90194C7E90346C7
:103DA0007C61BC61FC613C6238467C62FEF792FD3E
:103DB00008B1FEF735FAAF63002205212520BD6367
:103DC000FEF7C8FF252039E0DFF8088147453AD1E2
:103DD0003C48001F076847F400370760006800F49C
:103DE00000300590086840F00100086008686946E6
:103DF00000F0010005900C208DE81500CDE9033C92
:103E00005046FEF71BFE324F334860373860C7E933
:103E10000194C7E903467C61BC61FC613C623846A1
:103E20007C62FEF757FD08B1FEF7FAF9AF63002296
:103E300005212620BD63FEF78DFF2620FEF77CFFBF
:103E400006B0BDE8F087DFF894C06745F8D1076891
:103E500047F020070760006800F020000590086820
:103E600040F0040008600868694600F0040005900E
:103E7000C0208DE815000820CDE903301848FEF772
:103E8000DDFD134F1148C037183838608005C7E989
:103E90000104C7E903467C61BC61FC613C623846B1
:103EA0007C62FEF717FD08B1FEF7BAF9AF63002296
:103EB00005214720BD63FEF74DFF4720BEE7000008
:103EC00000100140443802400000024040640240BB
:103ED000180800200044004088600240001401409F
:103EE0000008024090F83E30202B0ED159B152B15B
:103EF00090F83C30012B08D0012380F83C3000239F
:103F0000036302F0BDBE0120704702207047704776
:103F1000704700002DE9F843044690F83D001F4625
:103F200016460D4620284CD1C5B1BEB194F83C00D0
:103F3000012846D0012084F83C004FF00008C4F866
:103F40004080212084F83D00FEF778FEA68481465B
:103F5000E684A068B0F5805F03D004E00120BDE8EE
:103F6000F883206928B12E465FF0000584F83C8074
:103F70000EE00026FAE78021204602F0B9FEA0B943
:103F8000AEB116F8010B21684860E08C401EE08459
:103F9000E08C4B464FF0000200970028EBD14FF029
:103FA0004001204602F0A4FE30B10320D7E735F8E7
:103FB000020BC0F30800E6E7202084F83D00002053
:103FC000CDE70220CBE77047F8B5064600680168E8
:103FD000C943C90629D401680025416800911349E5
:103FE000884222D13046FFF739FD11480068406809
:103FF000104CC0F58062501E40F2FE3122608842B3
:1040000008D20D4901F58060FCF79CF90B48216846
:10401000455400E0256086F83C503046BDE8F84045
:104020004FF480620449FFF75DBFF8BD00440040D3
:1040300078080020F4010020B4970020B49B0020F1
:104040002DE9F0471F4691468846040034D00120F0
:1040500000F044F82046FCF7B7F90646401E40F24F
:10406000FF31884228D2324621461A48FCF76AF9C5
:10407000184C0025A555C4F84C6CC4F8489C012682
:10408000012F02D984F8587C01E084F8586C124F53
:10409000B8F1000012D0FCF797F9064602464146F7
:1040A0003846FCF74FF9A01980F80054C4F8546C56
:1040B00084F85D5C84F85B5CBDE8F0874FF4806158
:1040C0003846FCF758F9C4F8485CC4F8545C84F8E6
:1040D0005B6CF1E7B49F0020B4A3002070B50B4DDA
:1040E000044695F8590CA0420FD00CB1012200E013
:1040F000002204210648FEF79CFD24B9D5F83C0CAB
:1041000004A102F045FE85F8594C70BDB49F002013
:10411000000C024041542B52455345540D0A0000F7
:1041200010B500F07DF9094C012084F85E0C0323E2
:104130004FF4FA7206A107A004F65B44FFF780FF74
:1041400000F06EF90020E070207810BDB49F0020D0
:104150004F4B000041542B4E414D453F0D0A00008E
:1041600070B51C4C1A48C4F83C0C002584F8595C06
:1041700084F85A5C84F85B5C84F8585C84F85C5C76
:10418000012084F85D0C84F85E5CC4F8485CC4F8D7
:10419000505CA4F58060C4F8400C0F48C4F8440C8F
:1041A0004FF4806604F50060314604F54464FCF782
:1041B000E2F8256131460748FCF7DDF8E560314655
:1041C0000648FCF7D8F86561BDE8704002F0ECB82D
:1041D00090070020B49F0020F4010020B4A3002029
:1041E00010B508210648FEF71FFD012806D0002162
:1041F000044880F85C1C90F85C0C10BD0121F7E7C6
:10420000000C0240B49F002010B500F009F9032310
:104210004FF4FA7206A107A0FFF712FF00F000F9B1
:10422000064890F85B1C80F85A1C90F85A0C10BD98
:104230004F4B000041540D0A00000000B49F0020C5
:104240002DE9F041564C94F8590C08B394F8580CE9
:10425000F0B106F0BCFDD4F8481C524D6A68114418
:10426000884215D306F0B3FD686021464EA002F0E7
:1042700089FED4F84C0C82B2D4F83C0C4FF6FF7394
:104280002146FFF747FE94F8580C401E84F8580C5E
:10429000D4F8440C006800287DD0D4F8440C0068A1
:1042A000C4F8500CD4F8500CB0F5806F03D340F232
:1042B000FF30C4F8500CD4F8502CD4F8401C3E48C1
:1042C00004F544640646FCF73DF820690025855551
:1042D00060680560607EA4F5446400285ED0D4F870
:1042E000540C00285AD035493046FCF74FF830B10D
:1042F00084F8585C012084F85B0C84F85D0C30A1D4
:104300003046FCF743F8264FB04207F6060807F59B
:1043100040670CD194F8060848B128224146384637
:10432000FCF746F884F85E5C3846FCF706FF94F824
:104330005E0C00B322A13046FCF728F8D8B994F8F7
:1043400000084F2803D194F801084B2813D094F8A3
:10435000060880B1282231463846FCF729F884F84F
:104360005E5C00E07F1C38780D2803D00A2801D05D
:104370000028F7D13D7014A13046FCF707F8B04291
:104380000CD11348142241460446FCF711F820468C
:10439000BDE8F04100E001E0FCF7CFBEBDE8F081F0
:1043A000B49F0020F401002048432D3035202D2DEE
:1043B0003E20257300000000B4A70020B4A3002015
:1043C0002B4E414D453A00002B414444523A0000E7
:1043D000DCAB002010B5044600F022F84FF4FA726E
:1043E0004FF0030306A10CB106A000E008A0FFF700
:1043F00027FE00F015F8094890F85B0C10BD00008E
:104400004F4B000041542B524F4C453D310D0A009B
:1044100041542B524F4C453D300D0A00B49F0020B3
:1044200010B5074C02E0642006F0C4FC94F8580C68
:10443000002803D094F8590C0028F4D110BD0000D6
:10444000B49F0020FEE700002DE9F0410824054656
:104450004FF400582603134F18E000BFFEF7E9FBA6
:1044600000F0ABF8280601D5012200E00022414609
:104470003846FEF7DEFB6806050E00F09EF80122C6
:1044800031463846FEF7D5FB00F097F8641EE4B2DB
:104490004FF0000231463846E0D2BDE8F041FEF769
:1044A000C8BB00000004024070B50122144D540343
:1044B00021462846FEF7BDFB0122D1032846FEF720
:1044C000B8FB00F07AF821462846FEF7ADFB00283D
:1044D0000CD0002221462846FEF7ABFB00F06DF819
:1044E00021462846FEF7A0FB08B1002070BD00223F
:1044F00021462846FEF79DFB00F05FF8012070BDC5
:104500000004024070B5114D4FF4004400222146D2
:104510002846FEF78EFB00F050F8A6100022314628
:104520002846FEF786FB00F048F80122214628467F
:10453000FEF77FFB00F041F8012231462846FEF7E6
:1045400078FBBDE8704000F038B80000000402407D
:1045500070B5154C4FF40045002229462046FEF761
:1045600068FB00F02AF80122560331462046FEF788
:1045700060FB00F022F8012229462046FEF759FB95
:1045800000F01BF831462046FEF74EFB00284FF0A6
:1045900000022946204603D0FEF74BFB002070BDE9
:1045A000FEF747FB012070BD0004024008B50A2059
:1045B0000090401E0090FCD108BD08B50A20009074
:1045C000401E0090FCD108BD70B50F4C0120E07278
:1045D000656BFFF719FE002814D00020FFF7FAFEE4
:1045E000FFF79EFD09490AA002F0CCFC0020FFF76E
:1045F00075FD642006F0DEFB606BA84200D06563A9
:104600000020E07270BD000004000020B4AB002068
:1046100048433035204E616D653A25730A0000002D
:104620002DE9FE43DFF87C90DDE90A65B9F90280E7
:10463000871801EB030C7F1EA8EB0104ACF1010C01
:10464000002C05DD1B1B002B2ADD04FB0655414613
:10465000B9F906804C46ACEB080CBCF1000F03DD49
:10466000A3EB0C03002B1BDDB4F904C0A7EB0C0774
:10467000002F00DDD21BB9F900400027844208DD7D
:10468000241A24F007073844121B05EBE40504F054
:104690000707002A04DDCDE90065029700F048F81D
:1046A000BDE8FE83848B002038B50F4BB3F9024080
:1046B0008C4217DCB3F906408C4213DBB3F900409F
:1046C000844200DD2046B3F90440944200DA2246D9
:1046D000824207DB1B7F00938BB292B289B280B219
:1046E00001F023F838BD0000848B002038B50F4B53
:1046F000B3F90040844217DCB3F90440844213DB71
:10470000B3F902408C4200DD2146B3F906409442E1
:1047100000DA22468A4207DB1B7F009393B282B203
:1047200089B280B201F001F838BD0000848B00200E
:104730002DE9F84F1E46DDE90A951746884683465F
:104740000024DDF830A009E004EB080153462A46B6
:1047500058460097FCF748FE4D44641CB442F3DB16
:10476000BDE8F88F70B50023002200EB031501EBC4
:10477000031400BF05EB820696ED000A04EB8206E7
:10478000521CD2B286ED000A042AF3D35B1CDBB2C2
:10479000042BE9D370BD0000F0B50024002302EB28
:1047A000041700EB041500BF01EB830695ED000A2A
:1047B000D6ED000A96ED041A20EE200AD5ED010A86
:1047C00000EE810AD5ED020A96ED081A00EE810A84
:1047D000D5ED030A96ED0C1A07EB83065B1CDBB2E2
:1047E00000EE810A042B86ED000ADDD3641CE4B2DE
:1047F000042CD3D3F0BD000010B52DED0A8B8EB084
:104800000CA906A80BAB07AACDE9000104A902A8D0
:1048100004F082FDBDF81800684CC0057ED59DED02
:10482000070AF8EEC00A9FED660AB8EE009AB0EEED
:10483000008A60EE800AC4ED030A9DED081A60EE5E
:10484000880AB8EEC11A21EE001A84ED041ADDEDD3
:10485000091A21EE091AF8EEE11A61EE801AC4ED88
:10486000051A9DED0A2AB8EEC22A22EE000A84ED4E
:10487000060A21EE000A00EEA10A10EE100AFBF76C
:104880006AFF41EC100B02F0CFFB9FED4EAB51ECF9
:10489000100B53EC1A2BFBF75FFEFBF787FF00EEC4
:1048A000100A84ED070AD4ED048A28EE890A60EE26
:1048B000280A94ED050A20EE08BA4BEE400AB7EE3E
:1048C000000A30EE800A10EE100AFBF744FF94ED68
:1048D000060AD4ED030A41EC190B2BEE000A60EE38
:1048E000880A00EEA80A10EE100AFBF734FF41EC2C
:1048F000100BB0EE491AF0EE691A02F0B1FE53EC5B
:104900001A2B51EC100BFBF727FEFBF74FFF00EEC5
:10491000100A84ED080A94ED03CA00E031E02CEEA1
:104920000C0AD4ED048AD4ED059A94ED069A08EEAB
:10493000A80A09EEE90A09EE490A10EE100AFBF787
:104940000AFF28EEA90A41EC1B0B0CEE090A20EE27
:10495000080A10EE100AFBF7FEFE41EC100BB0EE59
:104960004B1AF0EE6B1A02F07BFE53EC1A2B51EC53
:10497000100BFBF7F1FDFBF719FF00EE100A84EDB9
:10498000090ABDF9180010F0700F08D0BDF8081022
:10499000E180BDF80A102181BDF80C10618100078B
:1049A00008D5BDF810002080BDF812006080BDF869
:1049B0001400A0800EB0BDEC0A8B10BDBC0100201D
:1049C000000080306666666666A64C4070B505F0ED
:1049D00071FC08B1002070BD2FA002F0D3FA78203E
:1049E00006F062F908B135A04EE03FA002F0CAFA25
:1049F000782005F08BFB08B143A045E04EA002F003
:104A0000C1FA322006F010F908B154A03CE05CA0D5
:104A100002F0B8FA04F076FC08B163A034E071A0AB
:104A200002F0B0FA7C48044605F034FB0546E01C71
:104A300005F030FB45EAC005A01D05F02BFB45EA5B
:104A4000801080B204F00EFE08B174A01CE07FA0BC
:104A500002F098FA40F2731004F02CFB08B185A024
:104A600012E090A002F08EFA322004F063FD08B14B
:104A700095A009E09FA002F085FA06F06DFE0120E6
:104A800005F0F8FF18B1A4A002F07CFAA2E7ADA0EF
:104A900002F078FA012070BD6D707520696E69743E
:104AA00069616C697A6174696F6E20636F6D706C97
:104AB0006574652E2E2E2E2E2E0A00006D70755FE9
:104AC0007365745F73656E736F7220636F6D6520BD
:104AD0006163726F7373206572726F72202E2E2E57
:104AE0002E2E2E0A000000006D70755F7365745FD6
:104AF00073656E736F7220636F6D706C6574652083
:104B00002E2E2E2E2E2E0A006D70755F636F6E6630
:104B100069677572655F6669666F20636F6D652092
:104B20006163726F7373206572726F72202E2E2E06
:104B30002E2E2E0A000000006D70755F636F6E668A
:104B400069677572655F6669666F20636F6D706C0B
:104B5000657465202E2E2E2E2E2E0A006D70755F28
:104B60007365745F73616D706C655F7261746520ED
:104B70006572726F72202E2E2E2E2E2E0A000000CD
:104B80006D70755F7365745F73616D706C655F7276
:104B900061746520636F6D706C657465202E2E2EB8
:104BA0002E2E2E0A00000000646D705F6C6F616431
:104BB0005F6D6F74696F6E5F6472697665725F6650
:104BC00069726D7761726520636F6D6520616372D4
:104BD0006F7373206572726F72202E2E2E2E2E2E02
:104BE0000A000000646D705F6C6F61645F6D6F74CC
:104BF000696F6E5F6472697665725F6669726D7700
:104C000061726520636F6D706C657465202E2E2E49
:104C10002E2E2E0A00000000E4010020646D705F5B
:104C20007365745F6F7269656E746174696F6E200D
:104C3000636F6D65206163726F7373206572726F4D
:104C400072202E2E2E2E2E2E0A000000646D705F14
:104C50007365745F6F7269656E746174696F6E20DD
:104C6000636F6D706C657465202E2E2E2E2E2E0AAD
:104C700000000000646D705F656E61626C655F6668
:104C800065617475726520636F6D65206163726F15
:104C90007373206572726F72202E2E2E2E2E2E0AA6
:104CA00000000000646D705F656E61626C655F6638
:104CB00065617475726520636F6D706C65746520D5
:104CC0002E2E2E2E2E2E0A00646D705F7365745F7B
:104CD0006669666F5F7261746520636F6D652061E0
:104CE00063726F7373206572726F72202E2E2E2E78
:104CF0002E2E0A00646D705F7365745F6669666F5F
:104D00005F7261746520636F6D706C657465202ED1
:104D10002E2E2E2E2E0A00006D70755F7365745F47
:104D2000646D705F737461746520636F6D6520617D
:104D300063726F7373206572726F72202E2E2E2E27
:104D40002E2E0A006D70755F7365745F646D705F01
:104D5000737461746520636F6D706C657465202E6B
:104D60002E2E2E2E2E0A0000154808B5016841F49B
:104D700000110160016801F400110091016841F423
:104D8000800101600068002200F48000009005218D
:104D90001020FDF7DFFF1020FDF7CEFF00220521D8
:104DA0003920FDF7D7FF3920FDF7C6FF0022052186
:104DB0003A20FDF7CFFFBDE808403A20FDF7BCBF21
:104DC0003038024010B5124A0021124806F034F87B
:104DD000114C0F4A002120652432104806F02CF8AF
:104DE0000B4A6065483200210D4806F025F8084A54
:104DF000A0656C3200210B4806F01EF8044AE065FD
:104E000090320021084806F017F8206610BD000017
:104E10001CF60008D961000804000020CD5F0008DE
:104E2000C96300088D5F0008C95B00082DE9F04FD9
:104E300087B014216846FBF79EFA584800240168A1
:104E400041F010010160016801F010010591016855
:104E500041F080010160016801F080010591016865
:104E600041F001010160016801F001010591016853
:104E700041F002010160016801F002010591016841
:104E800041F004010160016801F00401059101682D
:104E900041F0080101600068DFF8048100F00800BB
:104EA000059001224FF47F414046FDF7C2FEDFF836
:104EB000F49000224AF2C0414846FDF7BAFEDFF8FE
:104EC000E8A04FF47066002231465046FDF7B1FE6F
:104ED000DFF8D8B04FF41947002239465846FDF79D
:104EE000A8FE002204213248FDF7A3FE0022012182
:104EF0004046FDF79EFE1E2001258DE831006946E3
:104F00004046FDF79BFD6020CDE9000402200290A1
:104F100069464046FDF792FD4FF601700090CDE9DD
:104F20000154694640460394FDF788FDA8020090AD
:104F3000CDE90154694648460394FDF77FFD4AF2E6
:104F4000C00000901120CDE9010469464846039451
:104F5000FDF774FD0096CDE901546946504603946F
:104F6000FDF76CFD0097CDE901546946584603945E
:104F7000FDF764FD04200090CDE9015469460C481A
:104F80000394FDF75BFD0820CDE90004694608485D
:104F90000294FDF753FD07B0BDE8F08F30380240B2
:104FA00000100240000402400008024000000240DD
:104FB000000C024010B58EB00024079408940994A8
:104FC0000A940B941C2168460C94FBF7D4F91F48F3
:104FD0001D4901605321C0E9011440F2E731C0E9E5
:104FE00003148461FEF7F2F908B1FDF719F94FF4E3
:104FF0008050079007A91548FEF7A6FA08B1FDF7FB
:105000000FF91248FEF74CFC08B1FDF709F90B94B3
:105010000BA90E480C94FEF791F908B1FDF700F9C1
:10502000602000904FF4FA70CDE901040022694637
:1050300006480494FEF7D1FB08B1FDF7F1F80348E8
:10504000FEF7A2FB0EB010BD0004004004070020D4
:105050000C4810B50A4901604FF4E131416000216C
:1050600081600C22C160C0E904128161C161FEF758
:105070002BFE002803D0BDE81040FDF7D1B810BDCD
:10508000001001404C0700200C4810B50A4901608F
:105090004FF416414160002181600C22C160C0E9DB
:1050A00004128161C161FEF70FFE002803D0BDE844
:1050B0001040FDF7B5B810BD004400409007002037
:1050C0000C4810B50A4901604FF4E13141600021FC
:1050D00081600C22C160C0E904128161C161FEF7E8
:1050E000F3FD002803D0BDE81040FDF799B810BDCE
:1050F00000140140D4070020FEE7FEE710B50B4C7A
:10510000012280212046FDF794FDFFF74FFA01228E
:1051100040212046FDF78DFDFFF748FA204600228A
:10512000BDE810404021FDF784BD000000040240AE
:1051300070B5144E0546002240213046FDF779FD3A
:105140000024280601D5012200E0002280213046FB
:10515000FDF76FFD6806050EFFF728FA01224021D2
:105160003046FDF766FDFFF721FA00224021304668
:10517000FDF75FFDFFF71AFA641CE4B2082CE0D3D8
:1051800070BD00000004024010B50D4C01228021CA
:105190002046FDF74EFD012240212046FDF749FD46
:1051A000FFF704FA002280212046FDF742FDFFF7B9
:1051B000FDF920460022BDE810404021FDF739BD31
:1051C0000004024010B50D4C002240212046FDF79E
:1051D00030FD002280212046FDF72BFDFFF7E6F988
:1051E000012240212046FDF724FD01228021204696
:1051F000FDF71FFDBDE81040FFF7D8B900040240DD
:10520000BDEEC00A10EE101ABDEEE00A0AB210EEB2
:10521000101A09B2C0E9002170470000B5EEC01AAB
:10522000F1EE10FA01D1B7EE001ADFED121A20EEFE
:10523000212A31EE210A01EE101AC2EE002AB8EE40
:10524000C11A32EE811ABDEEC11A11EE101A20EE0B
:10525000A11A09B2C1EE000A00EE102AB8EEC00A87
:1052600030EE800ABDEEC00A10EE102A12B2C0E97C
:10527000001270470000004470B514462DED048BF9
:10528000A2B00D46B0EE418AF0EE608AB0EE409AD0
:1052900010A806F055FB6FF003010B461A4610A844
:1052A00001F048FBB1EE001AF1EE000AB1EE000A7F
:1052B00010A800F0C9FBB0EE481AF0EE680AB0EE94
:1052C000490A10A800F012F9202322B229B210A82E
:1052D00001F030FB314E00246D4600BF04EB44006A
:1052E00006EB800110A891EC030A06F06BFD20A8E4
:1052F000FFF786FF05EBC400DDE92012C0E90012CC
:10530000641CE4B2082CE9D39DE80F00FDF7BCF85B
:10531000DDE90001DDE90423FDF7B6F8DDE906016A
:10532000DDE90223FDF7B0F8DDE90601DDE904233C
:10533000FDF7AAF808AC94E80F00FDF7A5F8DDE941
:105340000801DDE90C23FDF79FF8DDE90E01DDE939
:105350000A23FDF799F8DDE90E01DDE90C23FDF7DD
:1053600093F8DDE90001DDE90823FDF78DF8DDE9BB
:105370000201DDE90A23FDF787F8DDE90401DDE933
:105380000C23FDF781F8DDE90601DDE90E23FDF7C9
:105390007BF822B0BDEC048B70BD000054090108FD
:1053A0002DE9F0411D4D012211462846FDF741FC33
:1053B000322003F049FE002201212846FDF739FC86
:1053C0004FF4FA77384603F03FFE01221146284693
:1053D000FDF72FFC282003F037FE2E4600243D4623
:1053E00004E0641CA4B2012003F02EFE012130462B
:1053F000FDF71AFC10B1AC42F3D301E0AC4201D38B
:10540000012400E00024284603F01EFE012211467C
:105410003046FDF70EFC2046BDE8F081001002404A
:105420002DE9FF4F07462DED040B9A4693462DEDCF
:10543000048B93B0B0EE418AF0EE608AB0EE409AF1
:10544000684606F07DFA6FF00F0100230A466846B1
:1054500001F070FAB0EE481AF0EE680AB0EE490AB0
:10546000684600F043F8102220231146684601F0F8
:1054700061FA00264FF001095FF0000509FA05F016
:105480001FFA80F80024385D10EA080F1AD005EBE7
:10549000C60000EE104A00EE900ABBEE081AB8EE05
:1054A000400AF8EE600A684606F08CFC0FFA8AF2B1
:1054B0000FFA8BF110A8FFF7B1FEDDE910011C9A7D
:1054C000FCF7F0FF641CE4B2202CDCD36D1CEDB2C1
:1054D000082DD3D3761CF6B22037042ECCD313B0CC
:1054E000BDEC048B08B0BDE8F08F000010B5044699
:1054F0002DED088BD0B0B0EE41BAB0EE608A10EE60
:10550000100AFBF728F99FED6E9B53EC192BFBF764
:1055100023F89FED6DAB53EC1A2BFBF78FF8FBF7DD
:1055200045F908EE900A18EE100AFBF714F953EC4F
:10553000192BFBF711F853EC1A2BFBF77FF8FBF74D
:1055400035F908EE100A1BEE100AFBF704F953ECCC
:10555000192BFBF701F853EC1A2BFBF76FF8FBF74D
:1055600025F903EE900AB7EE003A8DED003ADFED33
:10557000582AB0EE680ACDED012ACDED022ACDED14
:10558000032ACDED042A03F049FD8DED050AB0EEA6
:10559000680A06F079F9B1EE400A8DED060ACDED04
:1055A000072ACDED082AB0EE680A06F06DF98DEDF8
:1055B000090AB0EE680A03F031FD8DED0A0ACDED5F
:1055C0000B2ACDED0C2ACDED0D2ACDED0E2A8DED59
:1055D0000F3AB0EE480A03F021FD8DED100ACDED33
:1055E000112AB0EE480A06F04FF98DED120ACDED02
:1055F000132ACDED142A8DED153ACDED162ACDEDF9
:10560000172AB0EE480A06F03FF9B1EE400A8DEDD8
:10561000180ACDED192AB0EE480A03F0FFFC8DED13
:105620001A0ACDED1B2ACDED1C2ACDED1D2ACDED9C
:105630001E2A8DED1F3AB0EE630A03F0EFFC8DEDEC
:10564000200AB0EE630A06F01FF9B1EE400A8DEDB4
:10565000210ACDED222ACDED232AB0EE630A06F011
:1056600013F98DED240AB0EE630A03F0D7FC8DED3B
:10567000250ACDED262ACDED272ACDED282ACDED20
:10568000292A8DED2A3ACDED2B2ACDED2C2ACDED10
:105690002D2ACDED2E2A8DED2F3A30AA69462046CF
:1056A000FFF77AF840AA10A930A8FFF775F822464C
:1056B00020A940A8FFF770F850B0BDEC088B10BDD2
:1056C0004AD8124DFB2109400000000000806640CE
:1056D000000000002DE9F8431F46DDF820900D463C
:1056E000064680281FD2402D1DD2B018802802D334
:1056F000C6F1800082B2E819402802D3C5F140000B
:1057000087B2002406EB02080BE0281983B281B2AD
:105710001FFA88F23046CDF8009000F006F8641CBD
:10572000E4B2BC42F1D9BDE8F8832DE9FC4F1D4637
:1057300014460E460746802800D37F27802C00D3CE
:105740007F24402E00D33F26402D00D33F25A74283
:1057500001D2E01B00E0381B0FFA80F9AE4201D203
:10576000A81B00E0701B0FFA80FA4FF0FF30A74231
:1057700001D2012100E001460191AE4200D2012098
:1057800083464846D14501DCCAF1000000EBD070E9
:1057900040F34F08B9F1000F23D0BAF1000F35D014
:1057A000C9F100000090314638460B9A00F042F8EB
:1057B000A74201D1AE4227D000994046884506DD78
:1057C000A8EB0A010FFA81F8019939448FB25045CC
:1057D000E9DA08EB09000FFA80F806EB0B0086B255
:1057E000E1E7B54202D22846354686B2BC4200D235
:1057F000A7B234B206E0A1B238460B9A00F01AF80C
:10580000641C24B2AC42F6DDBDE8FC8FB54200D288
:10581000AEB2BC4202D220463C4687B23DB206E060
:10582000A8B231460B9A00F005F86D1C2DB2A542C6
:10583000F6DDE9E770B5802813D2402911D20B4B71
:10584000012401F007051E79AC40094BC90800EBA3
:10585000C1100EB132B101E0012A03D0195CA1439D
:10586000195470BD195C2143FAE700008A01002039
:10587000A48B002028B1FF224FF480610248FAF780
:1058800073BD0022F8E70000A48B002070B50E4D18
:10589000002400BF04F1B000C0B2002100F016F8EF
:1058A0000021012000F012F80021102000F00EF875
:1058B00005EBC4104022802100F020F8641CE4B203
:1058C000082CE7D370BD0000A48B002070B50D46F6
:1058D0000446FFF759FC7820FFF72AFCFFF70EFC7F
:1058E0002846FFF725FCFFF709FC2046FFF720FCC0
:1058F000FFF704FCBDE87040FFF764BC70B51446C8
:105900000D460646FFF740FC7820FFF711FCFFF735
:10591000F5FB2046FFF70CFCFFF7F0FB002406E048
:10592000305DFFF705FCFFF7E9FB641CA4B2AC4255
:10593000F6D3BDE87040FFF745BC000010B5642009
:10594000FDF76AF80021AE20FFF7C0FF00212020FC
:10595000FFF7BCFF00211020FFF7B8FF0021B020A7
:10596000FFF7B4FF0021C820FFF7B0FF0021084671
:10597000FFF7ACFF00211020FFF7A8FF0021402017
:10598000FFF7A4FF00218120FFF7A0FF0021FF20E7
:10599000FFF79CFF0021A020FFF798FF0021C02007
:1059A000FFF794FF0021A620FFF790FF0021A82019
:1059B000FFF78CFF00213F20FFF788FF0021A42084
:1059C000FFF784FF0021D320FFF780FF0021084666
:1059D000FFF77CFF0021D520FFF778FF0021F020A2
:1059E000FFF774FF0021D920FFF770FF002122206C
:1059F000FFF76CFF0021DA20FFF768FF002112207B
:105A0000FFF764FF0021DB20FFF760FF002120206B
:105A1000FFF75CFF00218D20FFF758FF00211420C5
:105A2000FFF754FF0021AF20FFF750FF0020FFF7E2
:105A300021FFFFF72BFF0348002101804180012156
:105A4000417110BD8A01002010B5A0B004468DED53
:105A5000000A9FED160A10AA8DED010A8DED020ACB
:105A60008DED030A8DED040ACDED050A8DED060AD4
:105A70008DED070A8DED080A8DED090A8DED0A1AE4
:105A80008DED0B0A8DED0C0A8DED0D0A8DED0E0AD4
:105A9000B7EE000A8DED0F0A6946FEF77DFE21463E
:105AA00010A8FEF75FFE20B010BD0000000000004F
:105AB00070B5214D002402212846FDF7B5F800B944
:105AC000012404212846FDF7AFF808B944F0020488
:105AD00008212846FDF7A8F808B944F0030410216E
